{
  "contractName": "Player",
  "abi": [
    {
      "constant": true,
      "inputs": [],
      "name": "AUTHOR",
      "outputs": [
        {
          "name": "",
          "type": "address"
        }
      ],
      "payable": false,
      "stateMutability": "view",
      "type": "function"
    },
    {
      "constant": false,
      "inputs": [
        {
          "name": "ps",
          "type": "Player.Map storage"
        },
        {
          "name": "v",
          "type": "uint256"
        }
      ],
      "name": "depositAuthor",
      "outputs": [
        {
          "name": "",
          "type": "uint256"
        }
      ],
      "payable": false,
      "stateMutability": "nonpayable",
      "type": "function"
    },
    {
      "constant": false,
      "inputs": [
        {
          "name": "ps",
          "type": "Player.Map storage"
        },
        {
          "name": "adr",
          "type": "address"
        },
        {
          "name": "num",
          "type": "uint256"
        }
      ],
      "name": "withdrawal",
      "outputs": [
        {
          "name": "",
          "type": "uint256"
        }
      ],
      "payable": false,
      "stateMutability": "nonpayable",
      "type": "function"
    },
    {
      "constant": false,
      "inputs": [
        {
          "name": "ps",
          "type": "Player.Map storage"
        },
        {
          "name": "adr",
          "type": "address"
        }
      ],
      "name": "withdrawalAll",
      "outputs": [
        {
          "name": "",
          "type": "uint256"
        }
      ],
      "payable": false,
      "stateMutability": "nonpayable",
      "type": "function"
    },
    {
      "constant": true,
      "inputs": [
        {
          "name": "ps",
          "type": "Player.Map storage"
        },
        {
          "name": "adr",
          "type": "address"
        }
      ],
      "name": "getAmmount",
      "outputs": [
        {
          "name": "",
          "type": "uint256"
        }
      ],
      "payable": false,
      "stateMutability": "view",
      "type": "function"
    },
    {
      "constant": true,
      "inputs": [
        {
          "name": "ps",
          "type": "Player.Map storage"
        },
        {
          "name": "_name",
          "type": "bytes32"
        }
      ],
      "name": "isEmptyName",
      "outputs": [
        {
          "name": "",
          "type": "bool"
        }
      ],
      "payable": false,
      "stateMutability": "view",
      "type": "function"
    },
    {
      "constant": true,
      "inputs": [
        {
          "name": "ps",
          "type": "Player.Map storage"
        },
        {
          "name": "_name",
          "type": "bytes32"
        }
      ],
      "name": "getByName",
      "outputs": [
        {
          "name": "",
          "type": "address"
        }
      ],
      "payable": false,
      "stateMutability": "view",
      "type": "function"
    },
    {
      "constant": true,
      "inputs": [
        {
          "name": "ps",
          "type": "Player.Map storage"
        }
      ],
      "name": "getName",
      "outputs": [
        {
          "name": "",
          "type": "bytes32"
        }
      ],
      "payable": false,
      "stateMutability": "view",
      "type": "function"
    },
    {
      "constant": true,
      "inputs": [
        {
          "name": "ps",
          "type": "Player.Map storage"
        },
        {
          "name": "adr",
          "type": "address"
        }
      ],
      "name": "getNameByAddr",
      "outputs": [
        {
          "name": "",
          "type": "bytes32"
        }
      ],
      "payable": false,
      "stateMutability": "view",
      "type": "function"
    },
    {
      "constant": true,
      "inputs": [
        {
          "name": "ps",
          "type": "Player.Map storage"
        },
        {
          "name": "adr",
          "type": "address"
        }
      ],
      "name": "getReferrer",
      "outputs": [
        {
          "name": "",
          "type": "address"
        }
      ],
      "payable": false,
      "stateMutability": "view",
      "type": "function"
    },
    {
      "constant": false,
      "inputs": [
        {
          "name": "ps",
          "type": "Player.Map storage"
        },
        {
          "name": "fee",
          "type": "uint256"
        }
      ],
      "name": "withdrawalFee",
      "outputs": [
        {
          "name": "",
          "type": "uint256"
        }
      ],
      "payable": false,
      "stateMutability": "nonpayable",
      "type": "function"
    }
  ],
  "bytecode": "0x610a15610030600b82828239805160001a6073146000811461002057610022565bfe5b5030600052607381538281f30073000000000000000000000000000000000000000030146080604052600436106100c6576000357c0100000000000000000000000000000000000000000000000000000000900463ffffffff168063115760b3146100cb578063138091e214610127578063449d20cd146101a75780634ac823f41461021257806355dabc801461024e5780635636c582146102bc578063630640d21461031d5780638d46cde214610363578063a7be85c6146103b7578063ae5d696b14610401578063c32b57df1461044c575b600080fd5b61010960048036038101908080359060200190929190803573ffffffffffffffffffffffffffffffffffffffff169060200190929190505050610497565b60405180826000191660001916815260200191505060405180910390f35b61016560048036038101908080359060200190929190803573ffffffffffffffffffffffffffffffffffffffff1690602001909291905050506104e3565b604051808273ffffffffffffffffffffffffffffffffffffffff1673ffffffffffffffffffffffffffffffffffffffff16815260200191505060405180910390f35b8180156101b357600080fd5b506101fc60048036038101908080359060200190929190803573ffffffffffffffffffffffffffffffffffffffff1690602001909291908035906020019092919050505061054f565b6040518082815260200191505060405180910390f35b6102306004803603810190808035906020019092919050505061060b565b60405180826000191660001916815260200191505060405180910390f35b61027a600480360381019080803590602001909291908035600019169060200190929190505050610656565b604051808273ffffffffffffffffffffffffffffffffffffffff1673ffffffffffffffffffffffffffffffffffffffff16815260200191505060405180910390f35b8180156102c857600080fd5b5061030760048036038101908080359060200190929190803573ffffffffffffffffffffffffffffffffffffffff16906020019092919050505061069e565b6040518082815260200191505060405180910390f35b610349600480360381019080803590602001909291908035600019169060200190929190505050610744565b604051808215151515815260200191505060405180910390f35b6103a160048036038101908080359060200190929190803573ffffffffffffffffffffffffffffffffffffffff1690602001909291905050506107ba565b6040518082815260200191505060405180910390f35b6103bf610806565b604051808273ffffffffffffffffffffffffffffffffffffffff1673ffffffffffffffffffffffffffffffffffffffff16815260200191505060405180910390f35b81801561040d57600080fd5b50610436600480360381019080803590602001909291908035906020019092919050505061081e565b6040518082815260200191505060405180910390f35b81801561045857600080fd5b506104816004803603810190808035906020019092919080359060200190929190505050610847565b6040518082815260200191505060405180910390f35b60008260020160008373ffffffffffffffffffffffffffffffffffffffff1673ffffffffffffffffffffffffffffffffffffffff16815260200190815260200160002054905092915050565b60008260010160008373ffffffffffffffffffffffffffffffffffffffff1673ffffffffffffffffffffffffffffffffffffffff16815260200190815260200160002060009054906101000a900473ffffffffffffffffffffffffffffffffffffffff16905092915050565b6000808460000160008573ffffffffffffffffffffffffffffffffffffffff1673ffffffffffffffffffffffffffffffffffffffff168152602001908152602001600020549050828114156105aa576105a8858561069e565b505b82811115156105b857600080fd5b8281038560000160008673ffffffffffffffffffffffffffffffffffffffff1673ffffffffffffffffffffffffffffffffffffffff16815260200190815260200160002081905550809150509392505050565b60008160020160003373ffffffffffffffffffffffffffffffffffffffff1673ffffffffffffffffffffffffffffffffffffffff168152602001908152602001600020549050919050565b6000826003016000836000191660001916815260200190815260200160002060009054906101000a900473ffffffffffffffffffffffffffffffffffffffff16905092915050565b6000808360000160008473ffffffffffffffffffffffffffffffffffffffff1673ffffffffffffffffffffffffffffffffffffffff168152602001908152602001600020549050600081101515156106f557600080fd5b8360000160008473ffffffffffffffffffffffffffffffffffffffff1673ffffffffffffffffffffffffffffffffffffffff168152602001908152602001600020600090558091505092915050565b60008073ffffffffffffffffffffffffffffffffffffffff16836003016000846000191660001916815260200190815260200160002060009054906101000a900473ffffffffffffffffffffffffffffffffffffffff1673ffffffffffffffffffffffffffffffffffffffff1614905092915050565b60008260000160008373ffffffffffffffffffffffffffffffffffffffff1673ffffffffffffffffffffffffffffffffffffffff16815260200190815260200160002054905092915050565b731c9b3392f473f8f13e9eaf0619c405af22fc26a781565b600061083f83731c9b3392f473f8f13e9eaf0619c405af22fc26a78461098e565b905092915050565b6000803411156108d1578134101515156108c9576040517f08c379a000000000000000000000000000000000000000000000000000000000815260040180806020018281038252600f8152602001807f6d73672e76616c7565203c20666565000000000000000000000000000000000081525060200191505060405180910390fd5b819050610988565b816108dc84336107ba565b10151515610978576040517f08c379a00000000000000000000000000000000000000000000000000000000081526004018080602001828103825260228152602001807f706c61796572732e676574416d6d6f756e74286d73672e73656e646572293c6681526020017f656500000000000000000000000000000000000000000000000000000000000081525060400191505060405180910390fd5b61098383338461054f565b508190505b92915050565b6000818460000160008573ffffffffffffffffffffffffffffffffffffffff1673ffffffffffffffffffffffffffffffffffffffff1681526020019081526020016000206000828254019250508190555081905093925050505600a165627a7a723058202ec29ba7b17a2e7d944a0d4ac5cfd41f49e26c37afb7f3649986bf5083abe6fb0029",
  "source": "pragma solidity ^0.4.24;\r\n\r\nlibrary Player{\r\n\r\n    address public constant AUTHOR =  0x001C9b3392f473f8f13e9Eaf0619c405AF22FC26a7;\r\n    \r\n    struct Map{\r\n        mapping(address=>uint256) map;\r\n        mapping(address=>address) referrerMap;\r\n        mapping(address=>bytes32) addrNameMap;\r\n        mapping(bytes32=>address) nameAddrMap;\r\n    }\r\n    \r\n    function deposit(Map storage  ps,address adr,uint256 v) internal returns(uint256) {\r\n       ps.map[adr]+=v;\r\n        return v;\r\n    }\r\n    \r\n    function depositAuthor(Map storage  ps,uint256 v) public returns(uint256) {\r\n        return deposit(ps,AUTHOR,v);\r\n    }\r\n\r\n    function withdrawal(Map storage  ps,address adr,uint256 num) public returns(uint256) {\r\n        uint256 sum = ps.map[adr];\r\n        if(sum==num){\r\n            withdrawalAll(ps,adr);\r\n        }\r\n        require(sum > num);\r\n        ps.map[adr] = (sum-num);\r\n        return sum;\r\n    }\r\n    \r\n    function withdrawalAll(Map storage  ps,address adr) public returns(uint256) {\r\n        uint256 sum = ps.map[adr];\r\n        require(sum >= 0);\r\n        delete ps.map[adr];\r\n        return sum;\r\n    }\r\n    \r\n    function getAmmount(Map storage ps,address adr) public view returns(uint256) {\r\n        return ps.map[adr];\r\n    }\r\n    \r\n    function registerName(Map storage ps,bytes32 _name)internal  {\r\n        require(ps.nameAddrMap[_name] == address(0) );\r\n        ps.nameAddrMap[_name] = msg.sender;\r\n        ps.addrNameMap[msg.sender] = _name;\r\n    }\r\n    \r\n    function isEmptyName(Map storage ps,bytes32 _name) public view returns(bool) {\r\n        return ps.nameAddrMap[_name] == address(0);\r\n    }\r\n    \r\n    function getByName(Map storage ps,bytes32 _name)public view returns(address) {\r\n        return ps.nameAddrMap[_name] ;\r\n    }\r\n    \r\n    function getName(Map storage ps) public view returns(bytes32){\r\n        return ps.addrNameMap[msg.sender];\r\n    }\r\n    \r\n    function getNameByAddr(Map storage ps,address adr) public view returns(bytes32){\r\n        return ps.addrNameMap[adr];\r\n    }    \r\n    \r\n    function getReferrer(Map storage ps,address adr)public view returns(address){\r\n        return ps.referrerMap[adr];\r\n    }\r\n    \r\n    function setReferrer(Map storage ps,address self,address referrer)internal {\r\n         ps.referrerMap[self] = referrer;\r\n    }\r\n    \r\n    function withdrawalFee(Map storage ps,uint256 fee) public returns (uint256){\r\n        if(msg.value > 0){\r\n            require(msg.value >= fee,\"msg.value < fee\");\r\n            return fee;\r\n        }\r\n        require(getAmmount(ps,msg.sender)>=fee ,\"players.getAmmount(msg.sender)<fee\");\r\n        withdrawal(ps,msg.sender,fee);\r\n        return fee;\r\n    }   \r\n    \r\n}",
  "sourcePath": "C:\\Users\\Kirin\\Desktop\\BullsAndCows\\contracts\\Player.sol",
  "compiler": {
    "name": "solc",
    "version": "0.4.24+commit.e67f0147.Emscripten.clang"
  },
  "schemaVersion": "2.0.1",
  "updatedAt": "2018-09-15T15:15:42.248Z"
}