{
  "contractName": "Player",
  "abi": [
    {
      "constant": true,
      "inputs": [],
      "name": "AUTHOR",
      "outputs": [
        {
          "name": "",
          "type": "address"
        }
      ],
      "payable": false,
      "stateMutability": "view",
      "type": "function"
    },
    {
      "constant": false,
      "inputs": [
        {
          "name": "ps",
          "type": "Player.Map storage"
        },
        {
          "name": "v",
          "type": "uint256"
        }
      ],
      "name": "depositAuthor",
      "outputs": [
        {
          "name": "",
          "type": "uint256"
        }
      ],
      "payable": false,
      "stateMutability": "nonpayable",
      "type": "function"
    },
    {
      "constant": false,
      "inputs": [
        {
          "name": "ps",
          "type": "Player.Map storage"
        },
        {
          "name": "adr",
          "type": "address"
        },
        {
          "name": "num",
          "type": "uint256"
        }
      ],
      "name": "withdrawal",
      "outputs": [
        {
          "name": "",
          "type": "uint256"
        }
      ],
      "payable": false,
      "stateMutability": "nonpayable",
      "type": "function"
    },
    {
      "constant": false,
      "inputs": [
        {
          "name": "ps",
          "type": "Player.Map storage"
        },
        {
          "name": "adr",
          "type": "address"
        }
      ],
      "name": "withdrawalAll",
      "outputs": [
        {
          "name": "",
          "type": "uint256"
        }
      ],
      "payable": false,
      "stateMutability": "nonpayable",
      "type": "function"
    },
    {
      "constant": true,
      "inputs": [
        {
          "name": "ps",
          "type": "Player.Map storage"
        },
        {
          "name": "adr",
          "type": "address"
        }
      ],
      "name": "getAmmount",
      "outputs": [
        {
          "name": "",
          "type": "uint256"
        }
      ],
      "payable": false,
      "stateMutability": "view",
      "type": "function"
    },
    {
      "constant": true,
      "inputs": [
        {
          "name": "ps",
          "type": "Player.Map storage"
        },
        {
          "name": "_name",
          "type": "bytes32"
        }
      ],
      "name": "isEmptyName",
      "outputs": [
        {
          "name": "",
          "type": "bool"
        }
      ],
      "payable": false,
      "stateMutability": "view",
      "type": "function"
    },
    {
      "constant": true,
      "inputs": [
        {
          "name": "ps",
          "type": "Player.Map storage"
        },
        {
          "name": "_name",
          "type": "bytes32"
        }
      ],
      "name": "getByName",
      "outputs": [
        {
          "name": "",
          "type": "address"
        }
      ],
      "payable": false,
      "stateMutability": "view",
      "type": "function"
    },
    {
      "constant": true,
      "inputs": [
        {
          "name": "ps",
          "type": "Player.Map storage"
        }
      ],
      "name": "getName",
      "outputs": [
        {
          "name": "",
          "type": "bytes32"
        }
      ],
      "payable": false,
      "stateMutability": "view",
      "type": "function"
    },
    {
      "constant": true,
      "inputs": [
        {
          "name": "ps",
          "type": "Player.Map storage"
        },
        {
          "name": "adr",
          "type": "address"
        }
      ],
      "name": "getNameByAddr",
      "outputs": [
        {
          "name": "",
          "type": "bytes32"
        }
      ],
      "payable": false,
      "stateMutability": "view",
      "type": "function"
    },
    {
      "constant": true,
      "inputs": [
        {
          "name": "ps",
          "type": "Player.Map storage"
        },
        {
          "name": "adr",
          "type": "address"
        }
      ],
      "name": "getReferrer",
      "outputs": [
        {
          "name": "",
          "type": "address"
        }
      ],
      "payable": false,
      "stateMutability": "view",
      "type": "function"
    },
    {
      "constant": true,
      "inputs": [
        {
          "name": "ps",
          "type": "Player.Map storage"
        },
        {
          "name": "adr",
          "type": "address"
        }
      ],
      "name": "getReferrerName",
      "outputs": [
        {
          "name": "",
          "type": "bytes32"
        }
      ],
      "payable": false,
      "stateMutability": "view",
      "type": "function"
    },
    {
      "constant": false,
      "inputs": [
        {
          "name": "ps",
          "type": "Player.Map storage"
        },
        {
          "name": "fee",
          "type": "uint256"
        }
      ],
      "name": "withdrawalFee",
      "outputs": [
        {
          "name": "",
          "type": "uint256"
        }
      ],
      "payable": false,
      "stateMutability": "nonpayable",
      "type": "function"
    }
  ],
  "bytecode": "0x610a99610030600b82828239805160001a6073146000811461002057610022565bfe5b5030600052607381538281f30073000000000000000000000000000000000000000030146080604052600436106100d1576000357c0100000000000000000000000000000000000000000000000000000000900463ffffffff168063115760b3146100d6578063138091e214610132578063449d20cd146101b25780634ac823f41461021d57806355dabc80146102595780635636c582146102c7578063630640d2146103285780638d46cde21461036e578063a7be85c6146103c2578063ae5d696b1461040c578063bc0e322614610457578063c32b57df146104b3575b600080fd5b61011460048036038101908080359060200190929190803573ffffffffffffffffffffffffffffffffffffffff1690602001909291905050506104fe565b60405180826000191660001916815260200191505060405180910390f35b61017060048036038101908080359060200190929190803573ffffffffffffffffffffffffffffffffffffffff16906020019092919050505061054a565b604051808273ffffffffffffffffffffffffffffffffffffffff1673ffffffffffffffffffffffffffffffffffffffff16815260200191505060405180910390f35b8180156101be57600080fd5b5061020760048036038101908080359060200190929190803573ffffffffffffffffffffffffffffffffffffffff169060200190929190803590602001909291905050506105b6565b6040518082815260200191505060405180910390f35b61023b60048036038101908080359060200190929190505050610672565b60405180826000191660001916815260200191505060405180910390f35b6102856004803603810190808035906020019092919080356000191690602001909291905050506106bd565b604051808273ffffffffffffffffffffffffffffffffffffffff1673ffffffffffffffffffffffffffffffffffffffff16815260200191505060405180910390f35b8180156102d357600080fd5b5061031260048036038101908080359060200190929190803573ffffffffffffffffffffffffffffffffffffffff169060200190929190505050610705565b6040518082815260200191505060405180910390f35b6103546004803603810190808035906020019092919080356000191690602001909291905050506107ab565b604051808215151515815260200191505060405180910390f35b6103ac60048036038101908080359060200190929190803573ffffffffffffffffffffffffffffffffffffffff169060200190929190505050610821565b6040518082815260200191505060405180910390f35b6103ca61086d565b604051808273ffffffffffffffffffffffffffffffffffffffff1673ffffffffffffffffffffffffffffffffffffffff16815260200191505060405180910390f35b81801561041857600080fd5b506104416004803603810190808035906020019092919080359060200190929190505050610885565b6040518082815260200191505060405180910390f35b61049560048036038101908080359060200190929190803573ffffffffffffffffffffffffffffffffffffffff1690602001909291905050506108ae565b60405180826000191660001916815260200191505060405180910390f35b8180156104bf57600080fd5b506104e860048036038101908080359060200190929190803590602001909291905050506108cb565b6040518082815260200191505060405180910390f35b60008260020160008373ffffffffffffffffffffffffffffffffffffffff1673ffffffffffffffffffffffffffffffffffffffff16815260200190815260200160002054905092915050565b60008260010160008373ffffffffffffffffffffffffffffffffffffffff1673ffffffffffffffffffffffffffffffffffffffff16815260200190815260200160002060009054906101000a900473ffffffffffffffffffffffffffffffffffffffff16905092915050565b6000808460000160008573ffffffffffffffffffffffffffffffffffffffff1673ffffffffffffffffffffffffffffffffffffffff168152602001908152602001600020549050828114156106115761060f8585610705565b505b828111151561061f57600080fd5b8281038560000160008673ffffffffffffffffffffffffffffffffffffffff1673ffffffffffffffffffffffffffffffffffffffff16815260200190815260200160002081905550809150509392505050565b60008160020160003373ffffffffffffffffffffffffffffffffffffffff1673ffffffffffffffffffffffffffffffffffffffff168152602001908152602001600020549050919050565b6000826003016000836000191660001916815260200190815260200160002060009054906101000a900473ffffffffffffffffffffffffffffffffffffffff16905092915050565b6000808360000160008473ffffffffffffffffffffffffffffffffffffffff1673ffffffffffffffffffffffffffffffffffffffff1681526020019081526020016000205490506000811015151561075c57600080fd5b8360000160008473ffffffffffffffffffffffffffffffffffffffff1673ffffffffffffffffffffffffffffffffffffffff168152602001908152602001600020600090558091505092915050565b60008073ffffffffffffffffffffffffffffffffffffffff16836003016000846000191660001916815260200190815260200160002060009054906101000a900473ffffffffffffffffffffffffffffffffffffffff1673ffffffffffffffffffffffffffffffffffffffff1614905092915050565b60008260000160008373ffffffffffffffffffffffffffffffffffffffff1673ffffffffffffffffffffffffffffffffffffffff16815260200190815260200160002054905092915050565b731c9b3392f473f8f13e9eaf0619c405af22fc26a781565b60006108a683731c9b3392f473f8f13e9eaf0619c405af22fc26a784610a12565b905092915050565b60006108c3836108be858561054a565b6104fe565b905092915050565b6000803411156109555781341015151561094d576040517f08c379a000000000000000000000000000000000000000000000000000000000815260040180806020018281038252600f8152602001807f6d73672e76616c7565203c20666565000000000000000000000000000000000081525060200191505060405180910390fd5b819050610a0c565b816109608433610821565b101515156109fc576040517f08c379a00000000000000000000000000000000000000000000000000000000081526004018080602001828103825260228152602001807f706c61796572732e676574416d6d6f756e74286d73672e73656e646572293c6681526020017f656500000000000000000000000000000000000000000000000000000000000081525060400191505060405180910390fd5b610a078333846105b6565b508190505b92915050565b6000818460000160008573ffffffffffffffffffffffffffffffffffffffff1673ffffffffffffffffffffffffffffffffffffffff1681526020019081526020016000206000828254019250508190555081905093925050505600a165627a7a7230582085c316e42103cd3e5581950c21af8a1e6e09cd316d6e88d40235352d962b01f20029",
  "source": "pragma solidity ^0.4.24;\r\n\r\nimport \"./NameFilter.sol\";\r\n\r\nlibrary Player{\r\n\r\n    using NameFilter for string;\r\n\r\n    address public constant AUTHOR =  0x001C9b3392f473f8f13e9Eaf0619c405AF22FC26a7;\r\n    \r\n    struct Map{\r\n        mapping(address=>uint256) map;\r\n        mapping(address=>address) referrerMap;\r\n        mapping(address=>bytes32) addrNameMap;\r\n        mapping(bytes32=>address) nameAddrMap;\r\n    }\r\n    \r\n    function deposit(Map storage  ps,address adr,uint256 v) internal returns(uint256) {\r\n       ps.map[adr]+=v;\r\n        return v;\r\n    }\r\n    \r\n    function depositAuthor(Map storage  ps,uint256 v) public returns(uint256) {\r\n        return deposit(ps,AUTHOR,v);\r\n    }\r\n\r\n    function withdrawal(Map storage  ps,address adr,uint256 num) public returns(uint256) {\r\n        uint256 sum = ps.map[adr];\r\n        if(sum==num){\r\n            withdrawalAll(ps,adr);\r\n        }\r\n        require(sum > num);\r\n        ps.map[adr] = (sum-num);\r\n        return sum;\r\n    }\r\n    \r\n    function withdrawalAll(Map storage  ps,address adr) public returns(uint256) {\r\n        uint256 sum = ps.map[adr];\r\n        require(sum >= 0);\r\n        delete ps.map[adr];\r\n        return sum;\r\n    }\r\n    \r\n    function getAmmount(Map storage ps,address adr) public view returns(uint256) {\r\n        return ps.map[adr];\r\n    }\r\n    \r\n    function registerName(Map storage ps,bytes32 _name)internal  {\r\n        require(ps.nameAddrMap[_name] == address(0) );\r\n        ps.nameAddrMap[_name] = msg.sender;\r\n        ps.addrNameMap[msg.sender] = _name;\r\n    }\r\n    \r\n    function isEmptyName(Map storage ps,bytes32 _name) public view returns(bool) {\r\n        return ps.nameAddrMap[_name] == address(0);\r\n    }\r\n    \r\n    function getByName(Map storage ps,bytes32 _name)public view returns(address) {\r\n        return ps.nameAddrMap[_name] ;\r\n    }\r\n    \r\n    function getName(Map storage ps) public view returns(bytes32){\r\n        return ps.addrNameMap[msg.sender];\r\n    }\r\n    \r\n    function getNameByAddr(Map storage ps,address adr) public view returns(bytes32){\r\n        return ps.addrNameMap[adr];\r\n    }    \r\n    \r\n    function getReferrer(Map storage ps,address adr)public view returns(address){\r\n        return ps.referrerMap[adr];\r\n    }\r\n    \r\n    function getReferrerName(Map storage ps,address adr)public view returns(bytes32){\r\n        return getNameByAddr(ps,getReferrer(ps,adr));\r\n    }\r\n    \r\n    function setReferrer(Map storage ps,address self,address referrer)internal {\r\n         ps.referrerMap[self] = referrer;\r\n    }\r\n    \r\n    function applyReferrer(Map storage ps,string referrer)internal {\r\n        require(getReferrer(ps,msg.sender) == address(0));\r\n        bytes32 rbs = referrer.nameFilter();\r\n        address referrerAdr = getByName(ps,rbs);\r\n        if(referrerAdr != msg.sender){\r\n            setReferrer(ps,msg.sender,referrerAdr);\r\n        }\r\n    }    \r\n    \r\n    function withdrawalFee(Map storage ps,uint256 fee) public returns (uint256){\r\n        if(msg.value > 0){\r\n            require(msg.value >= fee,\"msg.value < fee\");\r\n            return fee;\r\n        }\r\n        require(getAmmount(ps,msg.sender)>=fee ,\"players.getAmmount(msg.sender)<fee\");\r\n        withdrawal(ps,msg.sender,fee);\r\n        return fee;\r\n    }   \r\n    \r\n}",
  "sourcePath": "C:\\Users\\Kirin\\Desktop\\BullsAndCows\\contracts\\Player.sol",
  "compiler": {
    "name": "solc",
    "version": "0.4.24+commit.e67f0147.Emscripten.clang"
  },
  "schemaVersion": "2.0.1",
  "updatedAt": "2018-09-23T13:09:40.072Z"
}