{
  "contractName": "SafeMath",
  "abi": [
    {
      "constant": true,
      "inputs": [
        {
          "name": "tar",
          "type": "uint256"
        },
        {
          "name": "numerator",
          "type": "uint256"
        },
        {
          "name": "denominator",
          "type": "uint256"
        },
        {
          "name": "pwrN",
          "type": "uint256"
        }
      ],
      "name": "pwrFloat",
      "outputs": [
        {
          "name": "",
          "type": "uint256"
        }
      ],
      "payable": false,
      "stateMutability": "pure",
      "type": "function"
    },
    {
      "constant": true,
      "inputs": [
        {
          "name": "tar",
          "type": "uint256"
        },
        {
          "name": "rate",
          "type": "uint256"
        }
      ],
      "name": "mulRate",
      "outputs": [
        {
          "name": "",
          "type": "uint256"
        }
      ],
      "payable": false,
      "stateMutability": "pure",
      "type": "function"
    }
  ],
  "bytecode": "0x610176610030600b82828239805160001a6073146000811461002057610022565bfe5b5030600052607381538281f3007300000000000000000000000000000000000000003014608060405260043610610063576000357c0100000000000000000000000000000000000000000000000000000000900463ffffffff1680633ca805ba14610068578063ee7fc5a3146100ba575b600080fd5b6100a4600480360381019080803590602001909291908035906020019092919080359060200190929190803590602001909291905050506100f8565b6040518082815260200191505060405180910390f35b6100e26004803603810190808035906020019092919080359060200190929190505050610131565b6040518082815260200191505060405180910390f35b600080600090505b82811015610125578385870281151561011557fe5b0495508080600101915050610100565b85915050949350505050565b6000606482840281151561014157fe5b049050929150505600a165627a7a72305820be40703c18587b55130c444bca34555c7090fe0d047020e8fed93ce4f91dd5820029",
  "source": "pragma solidity ^0.4.24;\r\nimport \"./Player.sol\";\r\nimport \"./NameFilter.sol\";\r\n\r\n\r\n\r\n\r\nlibrary SafeMath {\r\n    \r\n    /**\r\n    * @dev Multiplies two numbers, throws on overflow.\r\n    */\r\n    function mul(uint256 a, uint256 b) \r\n        internal \r\n        pure \r\n        returns (uint256 c) \r\n    {\r\n        if (a == 0) {\r\n            return 0;\r\n        }\r\n        c = a * b;\r\n        require(c / a == b, \"SafeMath mul failed\");\r\n        return c;\r\n    }\r\n    \r\n    function pwr(uint256 x, uint256 y)\r\n        internal \r\n        pure \r\n        returns (uint256)\r\n    {\r\n        if (x==0)\r\n            return (0);\r\n        else if (y==0)\r\n            return (1);\r\n        else \r\n        {\r\n            uint256 z = x;\r\n            for (uint256 i=1; i < y; i++)\r\n                z = mul(z,x);\r\n            return (z);\r\n        }\r\n    }\r\n    \r\n    function pwrFloat(uint256 tar,uint256 numerator,uint256 denominator,uint256 pwrN) public pure returns(uint256) {\r\n        for(uint256 i=0;i<pwrN;i++){\r\n            tar = tar * numerator / denominator;\r\n        }\r\n        return tar ;\r\n        \r\n    }\r\n\r\n    \r\n    function mulRate(uint256 tar,uint256 rate) public pure returns (uint256){\r\n        return tar *rate / 100;\r\n    }\r\n \r\n    \r\n    \r\n}\r\n\r\nlibrary ArrayUtils {\r\n    \r\n    function removeByIdx(uint256[] array,uint256 idx) public pure returns(uint256[] memory){\r\n         uint256[] memory ans = copy(array,array.length-1);\r\n        while((idx+1) < array.length){\r\n            ans[idx] = array[idx+1];\r\n            idx++;\r\n        }\r\n        return ans;\r\n    }\r\n    \r\n    function copy(uint256[] array,uint256 len) public pure returns(uint256[] memory){\r\n        uint256[] memory ans = new uint256[](len);\r\n        len = len > array.length? array.length : len;\r\n        for(uint256 i =0;i<len;i++){\r\n            ans[i] = array[i];\r\n        }\r\n        return ans;\r\n    }\r\n    \r\n    function getHash(uint256[] array) public pure returns(uint256) {\r\n        uint256 baseStep =100;\r\n        uint256 pow = 1;\r\n        uint256 ans = 0;\r\n        for(uint256 i=0;i<array.length;i++){\r\n            ans= ans+ uint256(array[i] *pow ) ;\r\n            pow= pow* baseStep;\r\n        }\r\n        return ans;\r\n    }\r\n    \r\n    function contains(address[] adrs,address adr)public pure returns(bool){\r\n        for(uint256 i=0;i<adrs.length;i++){\r\n            if(adrs[i] ==  adr) return true;\r\n        }\r\n        return false;\r\n    }\r\n    \r\n}\r\n\r\nlibrary CommUtils{\r\n    \r\n    using ArrayUtils for uint256[];\r\n    \r\n    function random(uint256 max,uint256 mixed) public view returns(uint256){\r\n        uint256 lastBlockNumber = block.number - 1;\r\n        uint256 hashVal = uint256(blockhash(lastBlockNumber));\r\n        hashVal += 31*uint256(block.coinbase);\r\n        hashVal += 19*mixed;\r\n        hashVal += 17*uint256(block.difficulty);\r\n        hashVal += 13*uint256(block.gaslimit );\r\n        hashVal += 11*uint256(now );\r\n        hashVal += 7*uint256(block.timestamp );\r\n        hashVal += 3*uint256(tx.origin);\r\n        return uint256(hashVal % max);\r\n    } \r\n    \r\n    function getIdxArray(uint256 len) public pure returns(uint256[]){\r\n        uint256[] memory ans = new uint256[](len);\r\n        for(uint128 i=0;i<len;i++){\r\n            ans[i] = i;\r\n        }\r\n        return ans;\r\n    }\r\n    \r\n    function genRandomArray(uint256 digits,uint256 templateLen,uint256 base) public view returns(uint256[]) {\r\n        uint256[] memory ans = new uint256[](digits);\r\n        uint256[] memory idxs  = getIdxArray( templateLen);\r\n       for(uint256 i=0;i<digits;i++){\r\n            uint256  idx = random(idxs.length,i+base);\r\n            uint256 wordIdx = idxs[idx];\r\n            ans[i] = wordIdx;\r\n            idxs = idxs.removeByIdx(idx);\r\n           \r\n       }\r\n       return ans;\r\n    }\r\n}\r\n\r\n\r\n\r\nlibrary PlayerReply{\r\n    \r\n    using ArrayUtils for address[];\r\n    using ArrayUtils for uint256[];\r\n    \r\n    uint256 constant VISABLE_NONE = 0;\r\n    uint256 constant VISABLE_FINAL = 1;\r\n    uint256 constant VISABLE_ALL = 2;\r\n    uint256 constant VISABLE_OWNER = 3;\r\n    uint256 constant VISABLE_BUYED = 4;\r\n    \r\n    uint256 constant HIDE_TIME = 5*60;\r\n    \r\n    uint256 constant GRAND_TOTAL_TIME = 10*60;\r\n    \r\n    \r\n    struct Data{\r\n        address[] ownerIds;\r\n        uint256 aCount;\r\n        uint256 bCount;\r\n        uint256[] answer;\r\n        uint replyAt;\r\n    }\r\n    \r\n    struct List{\r\n        uint256 size;\r\n        mapping (uint256 => uint256) hashIds;\r\n        mapping (uint256 => Data) map;\r\n        mapping (uint256=>uint256) sellPriceMap;\r\n        mapping (uint256=>address) seller;\r\n        mapping (uint256=>address[]) buyer;\r\n    }\r\n    \r\n    \r\n    function init(Data storage d,uint256 ac,uint256 bc,address own) internal{\r\n          d.ownerIds.push(own)  ;\r\n          d.aCount = ac;\r\n          d.bCount = bc;\r\n          d.replyAt = now;\r\n    }\r\n    \r\n    function clear(List storage ds) internal{\r\n        for(uint256 i =0;i<ds.size;i++){\r\n            uint256 key = ds.hashIds[i];\r\n            delete ds.map[key];\r\n            delete ds.sellPriceMap[key];\r\n            delete ds.seller[key];\r\n            delete ds.buyer[key];\r\n            delete ds.hashIds[i];\r\n        }\r\n        ds.size = 0;\r\n    }\r\n    \r\n    function setSellPrice(List storage ds,uint256 ansHash,uint256 price) internal {\r\n        require(ds.map[ansHash].ownerIds.contains(msg.sender));\r\n        require(ds.seller[ansHash] == address(0));\r\n        ds.seller[ansHash] = msg.sender;\r\n        ds.sellPriceMap[ansHash] = price;\r\n    }\r\n    \r\n    function getSellPrice(List storage ds,uint256 idx) public view returns(uint256) {\r\n        return ds.sellPriceMap[ds.hashIds[idx]] ;\r\n    }\r\n    \r\n    function isOwner(Data storage d) internal view returns(bool){\r\n        return d.replyAt>0 && d.answer.length>0 && d.ownerIds.contains(msg.sender);\r\n    }\r\n    \r\n    function isWined(Data storage d) internal view returns(bool){\r\n        return d.replyAt>0 && d.answer.length>0 && d.aCount == d.answer.length ;\r\n    }\r\n    \r\n    function getWin(List storage ds) internal view returns(Data storage lastAns){\r\n        for(uint256 i=0;i<ds.size;i++){\r\n            Data storage d = get(ds,i);\r\n           if(isWined(d)){\r\n             return d;  \r\n           } \r\n        }\r\n        \r\n        return lastAns;\r\n    }\r\n    \r\n    function getVisibleType(List storage ds,uint256 ansHash) internal view returns(uint256) {\r\n        Data storage d = ds.map[ansHash];\r\n        if(d.ownerIds.contains(msg.sender)){\r\n            return VISABLE_OWNER;\r\n        }else if(d.answer.length == d.aCount){\r\n            return VISABLE_FINAL;\r\n        }else if(ds.buyer[ansHash].contains(msg.sender)){\r\n            return VISABLE_BUYED;\r\n        }else if((now - d.replyAt)> HIDE_TIME && ds.sellPriceMap[ansHash] == 0){\r\n            return VISABLE_ALL;\r\n        }\r\n        return VISABLE_NONE;\r\n    }\r\n    \r\n    function getReplay(List storage ds,uint256 idx) internal view returns(\r\n        uint256 ,//aCount;\r\n        uint256,// bCount;\r\n        uint256[],// answer;\r\n        uint,// Timeline;\r\n        uint256, // VisibleType\r\n        uint256, //sellPrice\r\n        uint256 //ansHash\r\n        ) {\r\n            uint256 ansHash = ds.hashIds[idx];\r\n            uint256 sellPrice = ds.sellPriceMap[ansHash];\r\n            Data storage d= ds.map[ansHash];\r\n            uint256 vt = getVisibleType(ds,ansHash);\r\n        return (\r\n            d.aCount,\r\n            d.bCount,\r\n            vt!=VISABLE_NONE ?  d.answer : new uint256[](0),\r\n            now-d.replyAt,\r\n            vt,\r\n            sellPrice,\r\n            vt!=VISABLE_NONE ? ansHash : 0\r\n        );\r\n    } \r\n    \r\n    function listBestScore(List storage ds) internal view returns(\r\n        uint256 aCount , //aCount    \r\n        uint256 bCount , //bCount\r\n        uint256 bestCount // Count\r\n        ){\r\n        uint256 sorce = 0;\r\n        for(uint256 i=0;i<ds.size;i++){\r\n            Data storage d = get(ds,i);\r\n            uint256 curSore = (d.aCount *100) + d.bCount;\r\n            if(curSore > sorce){\r\n                aCount = d.aCount;\r\n                bCount = d.bCount;\r\n                sorce = curSore;\r\n                bestCount = 1;\r\n            }else if(curSore == sorce){\r\n                bestCount++;\r\n            }\r\n        }\r\n    }\r\n    \r\n    \r\n    function getOrGenByAnwser(List storage ds,uint256[] ans) internal  returns(Data storage ){\r\n        uint256 ansHash = ans.getHash();\r\n        Data storage d = ds.map[ansHash];\r\n        if(d.answer.length>0) return d;\r\n        d.answer = ans;\r\n        ds.hashIds[ds.size] = ansHash;\r\n        ds.size ++;\r\n        return d;\r\n    }\r\n    \r\n    \r\n    function get(List storage ds,uint256 idx) public view returns(Data storage){\r\n        return ds.map[ ds.hashIds[idx]];\r\n    }\r\n    \r\n    function getByHash(List storage ds ,uint256 ansHash)public view returns(Data storage){\r\n        return ds.map[ansHash];\r\n    }\r\n    \r\n    \r\n    function getLastReplyAt(List storage list) internal view returns(uint256){\r\n        return list.size>0 ? (now- get(list,list.size-1).replyAt) : 0;\r\n    }\r\n    \r\n    function getLastReply(List storage ds) internal view returns(Data storage d){\r\n        if( ds.size>0){\r\n            return get(ds,ds.size-1);\r\n        }\r\n        return d;\r\n    }    \r\n    \r\n    function countByGrand(List storage ds) internal view returns(uint256) {\r\n        if(ds.size == 0 ) return 0;\r\n        uint256 count = 0;\r\n        uint256 _lastAt = now;\r\n        uint256 lastIdx = ds.size-1;\r\n        Data memory d = get(ds,lastIdx-count);\r\n        while((_lastAt - d.replyAt)<= GRAND_TOTAL_TIME ){\r\n            count++;\r\n            _lastAt = d.replyAt;\r\n            if(count>lastIdx) return count;\r\n            d = get(ds,lastIdx-count);\r\n        }\r\n        return count;       \r\n    }\r\n    \r\n}\r\n\r\n\r\nlibrary RoomInfo{\r\n    \r\n    using PlayerReply for PlayerReply.Data;\r\n    using PlayerReply for PlayerReply.List;\r\n    using Player for Player.Map;\r\n    using ArrayUtils for uint256[];\r\n    uint256 constant DIVIDEND_AUTH = 5;\r\n    uint256 constant DIVIDEND_INVITE = 2;\r\n    uint256 constant DIVIDEND_INVITE_REFOUND = 3;\r\n    uint256 constant DECIMAL_PLACE = 100;\r\n\r\n    uint256 constant GRAND_RATE = 110;\r\n    \r\n    \r\n    \r\n    struct Data{\r\n        address ownerId;\r\n        uint256 charsLength;\r\n        uint256[] answer;\r\n        PlayerReply.List replys;\r\n        bytes32 name;\r\n        uint256 prize;\r\n        uint256 minReplyFee;\r\n        uint256 replayCount;\r\n        uint256 firstReplayAt;\r\n        uint256 rateCode;\r\n        uint256 round;\r\n        uint256 maxReplyFeeRate;\r\n        uint256 toAnswerRate;\r\n        uint256 toOwner;\r\n        uint256 nextRoundRate;\r\n        uint256 increaseRate_1000;\r\n        uint256 initAwardTime ;\r\n        uint256 plusAwardTime ;\r\n    }\r\n    \r\n    struct List{\r\n        mapping(uint256 => Data)  map;\r\n        uint256  size ;\r\n    }\r\n    \r\n    \r\n    \r\n    function genOrGetReplay(Data storage d,uint256[] ans) internal returns(PlayerReply.Data storage ) {\r\n        (PlayerReply.Data storage replayData)  = d.replys.getOrGenByAnwser(ans);\r\n        d.replayCount++;\r\n        if(d.firstReplayAt == 0) d.firstReplayAt = now;\r\n        return (replayData);\r\n    }\r\n    \r\n    function tryAnswer(Data storage d ,uint256[] _t ) internal view returns(uint256,uint256){\r\n        require(d.answer.length == _t.length);\r\n        uint256 aCount;\r\n        uint256 bCount;\r\n        for(uint256 i=0;i<_t.length;i++){\r\n            for(uint256 j=0;j<d.answer.length;j++){\r\n                if(d.answer[j] == _t[i]){\r\n                    if(i == j){\r\n                        aCount++;\r\n                    }else{\r\n                        bCount ++;\r\n                    }\r\n                }\r\n            }\r\n        }\r\n        return (aCount,bCount);\r\n    }\r\n\r\n    function init(\r\n        Data storage d,\r\n        uint256 digits,\r\n        uint256 templateLen,\r\n        bytes32 n,\r\n        uint256 toAnswerRate,\r\n        uint256 toOwner,\r\n        uint256 nextRoundRate,\r\n        uint256 minReplyFee,\r\n        uint256 maxReplyFeeRate,\r\n        uint256 increaseRate_1000,\r\n        uint256 initAwardTime,\r\n        uint256 plusAwardTime\r\n        ) public {\r\n        require(maxReplyFeeRate<1000 && maxReplyFeeRate > 5 );\r\n        require(minReplyFee<= msg.value *maxReplyFeeRate /DECIMAL_PLACE && minReplyFee>= 0.000005 ether);\r\n        require(digits>=2 && digits <= 9 );\r\n        require((toAnswerRate+toOwner)<=90);\r\n        require(msg.value >= 0.001 ether);\r\n        require(nextRoundRate <= 70);\r\n        require(templateLen >= 10);\r\n        require(initAwardTime < 60*60*24*90);\r\n        require(plusAwardTime < 60*60*24*20);\r\n        require(SafeMath.mulRate(msg.value,100-nextRoundRate) >= minReplyFee);\r\n        \r\n        d.charsLength = templateLen;\r\n        d.answer = CommUtils.genRandomArray(digits,templateLen,0);       \r\n        d.ownerId = msg.sender;\r\n        d.name = n;\r\n        d.prize = msg.value;\r\n        d.minReplyFee = minReplyFee;\r\n        d.round = 1;\r\n        d.maxReplyFeeRate = maxReplyFeeRate;\r\n        d.toAnswerRate = toAnswerRate;\r\n        d.toOwner = toOwner;\r\n        d.nextRoundRate = nextRoundRate;\r\n        d.increaseRate_1000 = increaseRate_1000;\r\n        d.initAwardTime = initAwardTime;\r\n        d.plusAwardTime = plusAwardTime;\r\n        \r\n    }\r\n    \r\n    function replayAnser(Data storage r,Player.Map storage ps,uint256 fee,uint256[] tryA) internal returns(\r\n            uint256, // aCount\r\n            uint256 // bCount\r\n        )  {\r\n        (uint256 a, uint256 b) = tryAnswer(r,tryA);\r\n        saveReplyFee(r,ps,fee);\r\n        (PlayerReply.Data storage pr) = genOrGetReplay(r,tryA);\r\n        pr.init(a,b,msg.sender); \r\n        return (a,b);\r\n    }\r\n    \r\n    function saveReplyFee(Data storage d,Player.Map storage ps,uint256 replayFee) internal  {\r\n        uint256 lessFee = replayFee;\r\n        //uint256 toAnswerRate= rates[IdxToAnswerRate];\r\n        //uint256 toOwner = rates[IdxToOwnerRate];\r\n        \r\n        lessFee -=sendReplayDividend(d,ps,replayFee*d.toAnswerRate/DECIMAL_PLACE);\r\n        address refer = ps.getReferrer(msg.sender);\r\n        if(refer == address(0)){\r\n            lessFee -=ps.depositAuthor(replayFee*(DIVIDEND_AUTH+DIVIDEND_INVITE+DIVIDEND_INVITE_REFOUND)/DECIMAL_PLACE);            \r\n        }else{\r\n            lessFee -=ps.deposit(msg.sender,replayFee*DIVIDEND_INVITE_REFOUND/DECIMAL_PLACE);\r\n            lessFee -=ps.deposit(refer,replayFee*DIVIDEND_INVITE/DECIMAL_PLACE);\r\n            lessFee -=ps.depositAuthor(replayFee*DIVIDEND_AUTH/DECIMAL_PLACE);\r\n        }\r\n        lessFee -=ps.deposit(d.ownerId,replayFee*d.toOwner/DECIMAL_PLACE);\r\n        \r\n        d.prize += lessFee;\r\n    }\r\n    \r\n    function sendReplayDividend(Data storage d,Player.Map storage ps,uint256 ammount) private returns(uint256) {\r\n        if(d.replayCount <=0) return 0;\r\n        uint256 oneD = ammount /  d.replayCount;\r\n        for(uint256 i=0;i<d.replys.size;i++){\r\n            PlayerReply.Data storage rp = d.replys.get(i);\r\n            for(uint256 j=0;j<rp.ownerIds.length;j++){\r\n                ps.deposit(rp.ownerIds[j],oneD);          \r\n            }\r\n        }\r\n        return ammount;\r\n    }\r\n\r\n    \r\n    \r\n    function getReplay(Data storage d,uint256 replayIdx) internal view returns(\r\n        uint256 ,//aCount;\r\n        uint256,// bCount;\r\n        uint256[],// answer;\r\n        uint,// replyAt;\r\n        uint256, // VisibleType\r\n        uint256, //sellPrice\r\n        uint256 //ansHash\r\n        ) {\r\n        return d.replys.getReplay(replayIdx);\r\n    }   \r\n    \r\n    function isAbleNextRound(Data storage d,uint256 nextRound) internal view returns(bool){\r\n        return ( SafeMath.mulRate(nextRound,100-d.nextRoundRate)> d.minReplyFee  );\r\n    }    \r\n    \r\n    function clearAndNextRound(Data storage d,uint256 prize) internal {\r\n        d.prize = prize;\r\n        d.replys.clear();\r\n        d.replayCount  = 0;\r\n        d.firstReplayAt = 0;\r\n        d.round++;\r\n        d.answer = CommUtils.genRandomArray(d.answer.length,d.charsLength,0); \r\n    }\r\n    \r\n    function getReplyFee(Data storage d) internal view returns(uint256){\r\n        uint256 prizeMax = (d.prize *  d.maxReplyFeeRate ) /DECIMAL_PLACE;\r\n        uint256 ans = SafeMath.pwrFloat(d.minReplyFee, d.increaseRate_1000 +1000,1000,d.replys.size);\r\n        ans = ans > prizeMax ? prizeMax : ans;\r\n        uint256 count = d.replys.countByGrand();\r\n        if(count>0){\r\n            ans = SafeMath.pwrFloat(ans,GRAND_RATE,DECIMAL_PLACE,count);       \r\n        }\r\n        ans = ans < d.minReplyFee ? d.minReplyFee : ans;\r\n        return ans;\r\n    }\r\n    \r\n    function sellReply(Data storage d,Player.Map storage ps,uint256 ansHash,uint256 price,uint256 fee) internal{\r\n        d.replys.setSellPrice(ansHash,price);\r\n        saveReplyFee(d,ps,fee);\r\n    }\r\n    \r\n    function buyReply(Data storage d,Player.Map storage ps,uint256 replyIdx,uint256 buyFee) internal{\r\n        uint256 ansHash = d.replys.hashIds[replyIdx];\r\n        require(buyFee >= d.replys.getSellPrice(replyIdx) ,\"buyFee to less\");\r\n        require(d.replys.seller[ansHash]!=address(0),\"d.replys.seller[ansHash]!=address(0)\");\r\n        d.replys.buyer[ansHash].push(msg.sender);\r\n        uint256 lessFee = buyFee;\r\n        address refer = ps.referrerMap[msg.sender];\r\n        if(refer == address(0)){\r\n            lessFee -=ps.depositAuthor(buyFee*(DIVIDEND_AUTH+DIVIDEND_INVITE+DIVIDEND_INVITE_REFOUND)/100);            \r\n        }else{\r\n            lessFee -=ps.deposit(msg.sender,buyFee*DIVIDEND_INVITE_REFOUND/100);\r\n            lessFee -=ps.deposit(refer,buyFee*DIVIDEND_INVITE/100);\r\n            lessFee -=ps.depositAuthor(buyFee*DIVIDEND_AUTH/100);\r\n        }        \r\n        lessFee -=ps.deposit(d.ownerId,buyFee*    d.toOwner  /100);\r\n        ps.deposit(d.replys.seller[ansHash],lessFee);\r\n    }\r\n    \r\n    \r\n    function getGameItem(Data storage d) public view returns(\r\n        bytes32, //name\r\n        uint256, //bestACount \r\n        uint256, //bestBCount\r\n        uint256, //answer count\r\n        uint256, //totalPrize\r\n        uint256, // reply Fee\r\n        uint256 //OverTimeLeft\r\n        ){\r\n             (uint256 aCount,uint256 bCount,uint256 bestCount) = d.replys.listBestScore();\r\n             bestCount = bestCount;\r\n             uint256 fee = getReplyFee(d);\r\n             uint256 overTimeLeft = getOverTimeLeft(d);\r\n             uint256 replySize = d.replys.size;\r\n        return(\r\n            d.name,\r\n            d.prize,\r\n            aCount,\r\n            bCount,\r\n            replySize,\r\n            fee,\r\n            overTimeLeft\r\n        );  \r\n        \r\n    }    \r\n    \r\n    function getByPrizeLeast(List storage ds) internal view returns (Data storage){\r\n        Data storage ans = ds.map[0];\r\n        uint256 _cp = ans.prize;\r\n        for(uint256 i=0;i<ds.size;i++){\r\n            if(_cp > ds.map[i].prize){\r\n                ans= ds.map[i];\r\n                _cp = ans.prize;\r\n            }\r\n        }\r\n        return ans;\r\n    }\r\n    \r\n    function getByPrizeLargestIdx(List storage ds) internal view returns (uint256 ){\r\n        uint256 ans = 0;\r\n        uint256 _cp = 0;\r\n        for(uint256 i=0;i<ds.size;i++){\r\n            if(_cp < ds.map[i].prize){\r\n                ans= i;\r\n                _cp = ds.map[i].prize;\r\n            }\r\n        }\r\n        return ans;\r\n    }    \r\n    \r\n    function getByName(List storage ds,bytes32 name) internal view returns( Data ){\r\n        for(uint256 i=0;i<ds.size;i++){\r\n            if(ds.map[i].name == name){\r\n                return ds.map[i];\r\n            }\r\n        }\r\n    }\r\n    \r\n    function getIdxByNameElseLargest(List storage ds,bytes32 name) internal view returns( uint256 ){\r\n        for(uint256 i=0;i<ds.size;i++){\r\n            if(ds.map[i].name == name){\r\n                return i;\r\n            }\r\n        }\r\n        return getByPrizeLargestIdx(ds);\r\n    } \r\n    \r\n    function getEmpty(List storage ds) internal returns(Data storage){\r\n        for(uint256 i=0;i<ds.size;i++){\r\n            if(ds.map[i].ownerId == address(0)){\r\n                return ds.map[i];\r\n            }\r\n        }\r\n        uint256 lastIdx= ds.size++;\r\n        return ds.map[lastIdx];\r\n    }\r\n    \r\n    \r\n    function award(RoomInfo.Data storage r,Player.Map storage players) internal  returns(\r\n            address[] memory winners,\r\n            uint256[] memory rewords,\r\n            uint256 nextRound\r\n        \r\n        )  {\r\n        (PlayerReply.Data storage pr) = getWinReply(r);\r\n        require( pr.isOwner(),\" pr.isSelfWinnwer()\");\r\n        \r\n        nextRound = r.nextRoundRate * r.prize / 100;\r\n        require(nextRound<=r.prize, \"nextRound<=r.prize\");\r\n        uint256 reward = r.prize - nextRound;\r\n        address[] storage ownerIds = pr.ownerIds;\r\n        winners = new address[](ownerIds.length);\r\n        rewords = new uint256[](ownerIds.length);\r\n        uint256 sum = 0;\r\n        if(ownerIds.length==1){\r\n            sum +=players.deposit(msg.sender , reward);\r\n            winners[0] = msg.sender;\r\n            rewords[0] = reward;\r\n           // emit Wined(msg.sender , reward,roomIdx ,players.getNameByAddr(msg.sender) );\r\n        }else{\r\n            uint256 otherReward = reward * 30 /100;\r\n            reward -= otherReward;\r\n            otherReward = otherReward / (ownerIds.length-1);\r\n            bool firstGived = false;\r\n            for(uint256 i=0;i<ownerIds.length;i++){\r\n                if(!firstGived && ownerIds[i] == msg.sender){\r\n                    firstGived = true;\r\n                    sum +=players.deposit(ownerIds[i] , reward);\r\n                    winners[i] = ownerIds[i];\r\n                    rewords[i] = reward;\r\n                   // emit Wined(ownerIds[i] , reward,roomIdx,players.getNameByAddr(ownerIds[i] ));\r\n                }else{\r\n                    sum +=players.deposit(ownerIds[i] , otherReward);\r\n                    //emit Wined(ownerIds[i] , otherReward,roomIdx,players.getNameByAddr(ownerIds[i] ));\r\n                    winners[i] = ownerIds[i];\r\n                    rewords[i] = otherReward;\r\n                }\r\n            }\r\n        }     \r\n        if(sum>(r.prize-nextRound)){\r\n            revert(\"sum>(r.prize-nextRound)\");\r\n        }\r\n    }    \r\n    \r\n    function getOverTimeLeft(Data storage d) internal view returns(uint256){\r\n        if(d.replayCount == 0) return 0;\r\n        //uint256 time = (d.replayCount * 5 * 60 )+ (3*24*60*60) ;\r\n        uint256 time = (d.replayCount *d.plusAwardTime )+ d.initAwardTime ;\r\n        uint256 spendT = (now-d.firstReplayAt);\r\n        if(time<spendT) return 0;\r\n        return time - spendT ;\r\n    }\r\n    \r\n    \r\n    function getWinReply(Data storage d) internal view returns (PlayerReply.Data storage){\r\n        PlayerReply.Data storage pr = d.replys.getWin();\r\n        if(pr.isWined()) return pr;\r\n        if(d.replayCount > 0 && getOverTimeLeft(d)==0 ) return d.replys.getLastReply();\r\n        return pr;\r\n    }\r\n    \r\n    function getRoomExReplyInfo(Data storage r) internal view returns(uint256 time,uint256 count) {\r\n        time = r.replys.getLastReplyAt();\r\n        count = r.replys.countByGrand();\r\n    }\r\n    \r\n    function get(List storage ds,uint256 idx) internal view returns(Data storage){\r\n        return ds.map[idx];\r\n    }\r\n    \r\n    \r\n}\r\n\r\n\r\ncontract BullsAndCows {\r\n\r\n    using Player for Player.Map;\r\n    //using PlayerReply for PlayerReply.Data;\r\n    //using PlayerReply for PlayerReply.List;\r\n    using RoomInfo for RoomInfo.Data;\r\n    using RoomInfo for RoomInfo.List;\r\n    using NameFilter for string;\r\n    \r\n\r\n\r\n    uint256 public constant DIGIT_MIN = 4;    \r\n    uint256 public constant SELL_PRICE_RATE = 200;\r\n    uint256 public constant SELL_MIN_RATE = 50;\r\n\r\n   // RoomInfo.Data[] private roomInfos ;\r\n    RoomInfo.List roomInfos;\r\n    Player.Map private players;\r\n    \r\n    //constructor() public   {    }\r\n    \r\n    // function createRoomQuick() public payable {\r\n    //     createRoom(4,10,\"AAA\",35,10,20,0.05 ether,20,20,60*60,60*60);\r\n    // }\r\n        \r\n    // function getBalance() public view returns (uint){\r\n    //     return address(this).balance;\r\n    // }    \r\n    \r\n    // function testNow() public  view returns(uint256[]) {\r\n    //     RoomInfo.Data storage r = roomInfos[0]    ; \r\n    //     return r.answer;\r\n    // }\r\n    \r\n    // function TestreplayAnser(uint256 roomIdx) public payable   {\r\n    //     RoomInfo.Data storage r = roomInfos.map[roomIdx];\r\n    //     for(uint256 i=0;i<4;i++){\r\n    //         uint256[] memory aa = CommUtils.genRandomArray(r.answer.length,r.charsLength,i);\r\n    //         r.replayAnser(players,0.5 ether,aa);\r\n    //     }\r\n    // }    \r\n    \r\n    \r\n    function getInitInfo() public view returns(\r\n        uint256,//roomSize\r\n        bytes32 //refert\r\n        ){\r\n        return (\r\n            roomInfos.size,\r\n            players.getReferrerName(msg.sender)\r\n        );\r\n    }\r\n    \r\n    function getRoomIdxByNameElseLargest(string _roomName) public view returns(uint256 ){\r\n        return roomInfos.getIdxByNameElseLargest(_roomName.nameFilter());\r\n    }    \r\n    \r\n    function testgetRoomInfo(uint256 roomIdx) public{\r\n        getRoomInfo(roomIdx);\r\n        RoomInfo.Data storage r = roomInfos.get(roomIdx)    ;\r\n        r.prize = r.prize;\r\n    }\r\n    \r\n    function getRoomInfo(uint256 roomIdx) public view returns(\r\n        address, //ownerId\r\n        bytes32, //roomName,\r\n        uint256, // replay visible idx type\r\n        uint256, // prize\r\n        uint256, // replyFee\r\n        uint256, // reply combo count\r\n        uint256, // lastReplyAt\r\n        uint256, // get over time\r\n        uint256,  // round\r\n        bool // winner\r\n        ){\r\n        RoomInfo.Data storage r = roomInfos.get(roomIdx)    ;\r\n        (uint256 time,uint256 count) = r.getRoomExReplyInfo();\r\n        (PlayerReply.Data storage pr) = r.getWinReply();\r\n        return (\r\n            r.ownerId,\r\n            r.name,\r\n            r.replys.size,\r\n            r.prize,\r\n            r.getReplyFee(),\r\n            count,\r\n            time,\r\n            r.getOverTimeLeft(),\r\n            r.round,\r\n            PlayerReply.isOwner(pr)\r\n        );\r\n    }\r\n    \r\n    function getRoom(uint256 roomIdx) public view returns(\r\n        uint256, //digits,\r\n        uint256, //templateLen,\r\n        uint256, //toAnswerRate,\r\n        uint256, //toOwner,\r\n        uint256, //nextRoundRate,\r\n        uint256, //minReplyFee,\r\n        uint256, //maxReplyFeeRate           \r\n        uint256  //IdxIncreaseRate\r\n        ){\r\n        RoomInfo.Data storage r = roomInfos.map[roomIdx]    ;\r\n        return(\r\n        r.answer.length,\r\n        r.charsLength,\r\n        r.toAnswerRate ,  //r.toAnswerRate \r\n        r.toOwner , //r.toOwner,\r\n        r.nextRoundRate ,  //r.nextRoundRate,\r\n        r.minReplyFee, \r\n        r.maxReplyFeeRate,     //r.maxReplyFeeRate  \r\n        r.increaseRate_1000     //IdxIncreaseRate\r\n        );\r\n        \r\n    }\r\n    \r\n    function getGameItem(uint256 idx) public view returns(\r\n        bytes32 ,// name\r\n        uint256, //totalPrize\r\n        uint256, //bestACount \r\n        uint256 , //bestBCount\r\n        uint256 , //answer count\r\n        uint256, //replyFee\r\n        uint256 //OverTimeLeft\r\n        ){\r\n        return roomInfos.map[idx].getGameItem();\r\n    }\r\n    \r\n    function getReplyFee(uint256 roomIdx) public view returns(uint256){\r\n        return roomInfos.map[roomIdx].getReplyFee();\r\n    }\r\n    \r\n    function getReplay(uint256 roomIdx,uint256 replayIdx) public view returns(\r\n        uint256 ,//aCount;\r\n        uint256,// bCount;\r\n        uint256[],// answer;\r\n        uint,// replyAt;\r\n        uint256, // VisibleType\r\n        uint256 ,//sellPrice\r\n        uint256 //ansHash\r\n        ) {\r\n        RoomInfo.Data storage r = roomInfos.map[roomIdx];\r\n        return r.getReplay(replayIdx);\r\n    }\r\n    \r\n    function replayAnserWithReferrer(uint256 roomIdx,uint256[] tryA,string referrer)public payable {\r\n        players.applyReferrer(referrer);\r\n        replayAnser(roomIdx,tryA);\r\n    }\r\n\r\n    function replayAnser(uint256 roomIdx,uint256[] tryA) public payable   {\r\n        RoomInfo.Data storage r = roomInfos.map[roomIdx];\r\n        (uint256 a, uint256 b)= r.replayAnser(players,players.withdrawalFee(r.getReplyFee()),tryA);\r\n        emit ReplayAnserResult (a,b,roomIdx);\r\n    }\r\n    \r\n    \r\n    function sellReply(uint256 roomIdx,uint256 ansHash,uint256 price) public payable {\r\n        RoomInfo.Data storage r = roomInfos.map[roomIdx];\r\n        require(price >= r.prize * SELL_MIN_RATE / 100,\"price too low\");\r\n        r.sellReply(players,ansHash,price,players.withdrawalFee(price * SELL_PRICE_RATE /100));\r\n    }\r\n    \r\n    function buyReply(uint256 roomIdx,uint256 replyIdx) public payable{\r\n        roomInfos.map[roomIdx].buyReply(players,replyIdx,msg.value);\r\n    }\r\n    \r\n    \r\n\r\n    function isEmptyName(string _n) public view returns(bool){\r\n        return players.isEmptyName(_n.nameFilter());\r\n    }\r\n    \r\n    function award(uint256 roomIdx) public  {\r\n        RoomInfo.Data storage r = roomInfos.map[roomIdx];\r\n        (\r\n            address[] memory winners,\r\n            uint256[] memory rewords,\r\n            uint256 nextRound\r\n        )=r.award(players);\r\n        emit Wined(winners , rewords,roomIdx);\r\n        //(nextRound >= CREATE_INIT_PRIZE && SafeMath.mulRate(nextRound,maxReplyFeeRate) > r.minReplyFee  ) || roomInfos.length == 1\r\n        if(r.isAbleNextRound(nextRound)){\r\n            r.clearAndNextRound(nextRound);   \r\n        }else if(roomInfos.size>1){\r\n            for(uint256 i = roomIdx; i<roomInfos.size-1; i++){\r\n                roomInfos.map[i] = roomInfos.map[i+1];\r\n            }\r\n            delete roomInfos.map[roomInfos.size-1];\r\n            roomInfos.size--;\r\n            roomInfos.getByPrizeLeast().prize += nextRound;\r\n        }else{\r\n            delete roomInfos.map[roomIdx];\r\n            players.depositAuthor(nextRound);\r\n            roomInfos.size = 0;\r\n        }\r\n    }\r\n    \r\n\r\n    function createRoom(\r\n        uint256 digits,\r\n        uint256 templateLen,\r\n        string roomName,\r\n        uint256 toAnswerRate,\r\n        uint256 toOwner,\r\n        uint256 nextRoundRate,\r\n        uint256 minReplyFee,\r\n        uint256 maxReplyFeeRate,\r\n        uint256 increaseRate,\r\n        uint256 initAwardTime,\r\n        uint256 plusAwardTime\r\n        )  public payable{\r\n\r\n        bytes32 name = roomName.nameFilter();\r\n        require(roomInfos.getByName(name).ownerId == address(0));\r\n        RoomInfo.Data storage r = roomInfos.getEmpty();\r\n        r.init(\r\n            digits,\r\n            templateLen,\r\n            name,\r\n            toAnswerRate,\r\n            toOwner,\r\n            nextRoundRate,\r\n            minReplyFee,\r\n            maxReplyFeeRate,\r\n            increaseRate,\r\n            initAwardTime,\r\n            plusAwardTime\r\n        );\r\n    }\r\n    \r\n    function getPlayerWallet() public view returns(  uint256   ){\r\n        return players.getAmmount(msg.sender);\r\n    }\r\n    \r\n    function withdrawal() public payable {\r\n        uint256 sum=players.withdrawalAll(msg.sender);\r\n        msg.sender.transfer(sum);\r\n    }\r\n    \r\n    function registerName(string  name) public payable {\r\n        require(msg.value >= 0.1 ether);\r\n        require(players.getName()==\"\");\r\n        players.registerName(name.nameFilter());\r\n    }\r\n    \r\n    function getPlayerName() public view returns(bytes32){\r\n        return players.getName();\r\n    }\r\n    \r\n    event ReplayAnserResult(\r\n        uint256 aCount,\r\n        uint256 bCount,\r\n        uint256 roomIdx\r\n    );\r\n    \r\n    event Wined(\r\n        address[]  winners,\r\n        uint256[]  rewords,\r\n        uint256 roomIdx\r\n    );    \r\n    \r\n}\r\n\r\n\r\n",
  "sourcePath": "C:\\Users\\Kirin\\Desktop\\BullsAndCows\\contracts\\BullsAndCows.sol",
  "compiler": {
    "name": "solc",
    "version": "0.4.24+commit.e67f0147.Emscripten.clang"
  },
  "schemaVersion": "2.0.1",
  "updatedAt": "2018-09-23T13:09:40.479Z"
}